{
  "contractName": "Ecliptic",
  "abi": [
    {
      "constant": true,
      "inputs": [
        {
          "name": "_interfaceId",
          "type": "bytes4"
        }
      ],
      "name": "supportsInterface",
      "outputs": [
        {
          "name": "",
          "type": "bool"
        }
      ],
      "payable": false,
      "stateMutability": "view",
      "type": "function"
    },
    {
      "constant": false,
      "inputs": [],
      "name": "onUpgrade",
      "outputs": [],
      "payable": false,
      "stateMutability": "nonpayable",
      "type": "function"
    },
    {
      "constant": true,
      "inputs": [],
      "name": "InterfaceId_ERC165",
      "outputs": [
        {
          "name": "",
          "type": "bytes4"
        }
      ],
      "payable": false,
      "stateMutability": "view",
      "type": "function"
    },
    {
      "constant": false,
      "inputs": [],
      "name": "renounceOwnership",
      "outputs": [],
      "payable": false,
      "stateMutability": "nonpayable",
      "type": "function"
    },
    {
      "constant": true,
      "inputs": [],
      "name": "owner",
      "outputs": [
        {
          "name": "",
          "type": "address"
        }
      ],
      "payable": false,
      "stateMutability": "view",
      "type": "function"
    },
    {
      "constant": true,
      "inputs": [],
      "name": "azimuth",
      "outputs": [
        {
          "name": "",
          "type": "address"
        }
      ],
      "payable": false,
      "stateMutability": "view",
      "type": "function"
    },
    {
      "constant": true,
      "inputs": [],
      "name": "claims",
      "outputs": [
        {
          "name": "",
          "type": "address"
        }
      ],
      "payable": false,
      "stateMutability": "view",
      "type": "function"
    },
    {
      "constant": true,
      "inputs": [],
      "name": "polls",
      "outputs": [
        {
          "name": "",
          "type": "address"
        }
      ],
      "payable": false,
      "stateMutability": "view",
      "type": "function"
    },
    {
      "constant": true,
      "inputs": [],
      "name": "previousEcliptic",
      "outputs": [
        {
          "name": "",
          "type": "address"
        }
      ],
      "payable": false,
      "stateMutability": "view",
      "type": "function"
    },
    {
      "constant": false,
      "inputs": [
        {
          "name": "_newOwner",
          "type": "address"
        }
      ],
      "name": "transferOwnership",
      "outputs": [],
      "payable": false,
      "stateMutability": "nonpayable",
      "type": "function"
    },
    {
      "inputs": [
        {
          "name": "_previous",
          "type": "address"
        },
        {
          "name": "_azimuth",
          "type": "address"
        },
        {
          "name": "_polls",
          "type": "address"
        },
        {
          "name": "_claims",
          "type": "address"
        }
      ],
      "payable": false,
      "stateMutability": "nonpayable",
      "type": "constructor"
    },
    {
      "anonymous": false,
      "inputs": [
        {
          "indexed": true,
          "name": "_from",
          "type": "address"
        },
        {
          "indexed": true,
          "name": "_to",
          "type": "address"
        },
        {
          "indexed": false,
          "name": "_tokenId",
          "type": "uint256"
        }
      ],
      "name": "Transfer",
      "type": "event"
    },
    {
      "anonymous": false,
      "inputs": [
        {
          "indexed": true,
          "name": "_owner",
          "type": "address"
        },
        {
          "indexed": true,
          "name": "_approved",
          "type": "address"
        },
        {
          "indexed": false,
          "name": "_tokenId",
          "type": "uint256"
        }
      ],
      "name": "Approval",
      "type": "event"
    },
    {
      "anonymous": false,
      "inputs": [
        {
          "indexed": true,
          "name": "_owner",
          "type": "address"
        },
        {
          "indexed": true,
          "name": "_operator",
          "type": "address"
        },
        {
          "indexed": false,
          "name": "_approved",
          "type": "bool"
        }
      ],
      "name": "ApprovalForAll",
      "type": "event"
    },
    {
      "anonymous": false,
      "inputs": [
        {
          "indexed": false,
          "name": "to",
          "type": "address"
        }
      ],
      "name": "Upgraded",
      "type": "event"
    },
    {
      "anonymous": false,
      "inputs": [
        {
          "indexed": true,
          "name": "previousOwner",
          "type": "address"
        }
      ],
      "name": "OwnershipRenounced",
      "type": "event"
    },
    {
      "anonymous": false,
      "inputs": [
        {
          "indexed": true,
          "name": "previousOwner",
          "type": "address"
        },
        {
          "indexed": true,
          "name": "newOwner",
          "type": "address"
        }
      ],
      "name": "OwnershipTransferred",
      "type": "event"
    },
    {
      "constant": true,
      "inputs": [
        {
          "name": "_owner",
          "type": "address"
        }
      ],
      "name": "balanceOf",
      "outputs": [
        {
          "name": "balance",
          "type": "uint256"
        }
      ],
      "payable": false,
      "stateMutability": "view",
      "type": "function"
    },
    {
      "constant": true,
      "inputs": [
        {
          "name": "_tokenId",
          "type": "uint256"
        }
      ],
      "name": "ownerOf",
      "outputs": [
        {
          "name": "owner",
          "type": "address"
        }
      ],
      "payable": false,
      "stateMutability": "view",
      "type": "function"
    },
    {
      "constant": true,
      "inputs": [
        {
          "name": "_tokenId",
          "type": "uint256"
        }
      ],
      "name": "exists",
      "outputs": [
        {
          "name": "doesExist",
          "type": "bool"
        }
      ],
      "payable": false,
      "stateMutability": "view",
      "type": "function"
    },
    {
      "constant": false,
      "inputs": [
        {
          "name": "_from",
          "type": "address"
        },
        {
          "name": "_to",
          "type": "address"
        },
        {
          "name": "_tokenId",
          "type": "uint256"
        }
      ],
      "name": "safeTransferFrom",
      "outputs": [],
      "payable": false,
      "stateMutability": "nonpayable",
      "type": "function"
    },
    {
      "constant": false,
      "inputs": [
        {
          "name": "_from",
          "type": "address"
        },
        {
          "name": "_to",
          "type": "address"
        },
        {
          "name": "_tokenId",
          "type": "uint256"
        },
        {
          "name": "_data",
          "type": "bytes"
        }
      ],
      "name": "safeTransferFrom",
      "outputs": [],
      "payable": false,
      "stateMutability": "nonpayable",
      "type": "function"
    },
    {
      "constant": false,
      "inputs": [
        {
          "name": "_from",
          "type": "address"
        },
        {
          "name": "_to",
          "type": "address"
        },
        {
          "name": "_tokenId",
          "type": "uint256"
        }
      ],
      "name": "transferFrom",
      "outputs": [],
      "payable": false,
      "stateMutability": "nonpayable",
      "type": "function"
    },
    {
      "constant": false,
      "inputs": [
        {
          "name": "_approved",
          "type": "address"
        },
        {
          "name": "_tokenId",
          "type": "uint256"
        }
      ],
      "name": "approve",
      "outputs": [],
      "payable": false,
      "stateMutability": "nonpayable",
      "type": "function"
    },
    {
      "constant": false,
      "inputs": [
        {
          "name": "_operator",
          "type": "address"
        },
        {
          "name": "_approved",
          "type": "bool"
        }
      ],
      "name": "setApprovalForAll",
      "outputs": [],
      "payable": false,
      "stateMutability": "nonpayable",
      "type": "function"
    },
    {
      "constant": true,
      "inputs": [
        {
          "name": "_tokenId",
          "type": "uint256"
        }
      ],
      "name": "getApproved",
      "outputs": [
        {
          "name": "approved",
          "type": "address"
        }
      ],
      "payable": false,
      "stateMutability": "view",
      "type": "function"
    },
    {
      "constant": true,
      "inputs": [
        {
          "name": "_owner",
          "type": "address"
        },
        {
          "name": "_operator",
          "type": "address"
        }
      ],
      "name": "isApprovedForAll",
      "outputs": [
        {
          "name": "result",
          "type": "bool"
        }
      ],
      "payable": false,
      "stateMutability": "view",
      "type": "function"
    },
    {
      "constant": true,
      "inputs": [],
      "name": "name",
      "outputs": [
        {
          "name": "",
          "type": "string"
        }
      ],
      "payable": false,
      "stateMutability": "view",
      "type": "function"
    },
    {
      "constant": true,
      "inputs": [],
      "name": "symbol",
      "outputs": [
        {
          "name": "",
          "type": "string"
        }
      ],
      "payable": false,
      "stateMutability": "view",
      "type": "function"
    },
    {
      "constant": true,
      "inputs": [
        {
          "name": "_tokenId",
          "type": "uint256"
        }
      ],
      "name": "tokenURI",
      "outputs": [
        {
          "name": "_tokenURI",
          "type": "string"
        }
      ],
      "payable": false,
      "stateMutability": "view",
      "type": "function"
    },
    {
      "constant": false,
      "inputs": [
        {
          "name": "_point",
          "type": "uint32"
        },
        {
          "name": "_encryptionKey",
          "type": "bytes32"
        },
        {
          "name": "_authenticationKey",
          "type": "bytes32"
        },
        {
          "name": "_cryptoSuiteVersion",
          "type": "uint32"
        },
        {
          "name": "_discontinuous",
          "type": "bool"
        }
      ],
      "name": "configureKeys",
      "outputs": [],
      "payable": false,
      "stateMutability": "nonpayable",
      "type": "function"
    },
    {
      "constant": false,
      "inputs": [
        {
          "name": "_point",
          "type": "uint32"
        },
        {
          "name": "_target",
          "type": "address"
        }
      ],
      "name": "spawn",
      "outputs": [],
      "payable": false,
      "stateMutability": "nonpayable",
      "type": "function"
    },
    {
      "constant": false,
      "inputs": [
        {
          "name": "_point",
          "type": "uint32"
        },
        {
          "name": "_target",
          "type": "address"
        },
        {
          "name": "_reset",
          "type": "bool"
        }
      ],
      "name": "transferPoint",
      "outputs": [],
      "payable": false,
      "stateMutability": "nonpayable",
      "type": "function"
    },
    {
      "constant": false,
      "inputs": [
        {
          "name": "_point",
          "type": "uint32"
        },
        {
          "name": "_sponsor",
          "type": "uint32"
        }
      ],
      "name": "escape",
      "outputs": [],
      "payable": false,
      "stateMutability": "nonpayable",
      "type": "function"
    },
    {
      "constant": false,
      "inputs": [
        {
          "name": "_point",
          "type": "uint32"
        }
      ],
      "name": "cancelEscape",
      "outputs": [],
      "payable": false,
      "stateMutability": "nonpayable",
      "type": "function"
    },
    {
      "constant": false,
      "inputs": [
        {
          "name": "_point",
          "type": "uint32"
        }
      ],
      "name": "adopt",
      "outputs": [],
      "payable": false,
      "stateMutability": "nonpayable",
      "type": "function"
    },
    {
      "constant": false,
      "inputs": [
        {
          "name": "_point",
          "type": "uint32"
        }
      ],
      "name": "reject",
      "outputs": [],
      "payable": false,
      "stateMutability": "nonpayable",
      "type": "function"
    },
    {
      "constant": false,
      "inputs": [
        {
          "name": "_point",
          "type": "uint32"
        }
      ],
      "name": "detach",
      "outputs": [],
      "payable": false,
      "stateMutability": "nonpayable",
      "type": "function"
    },
    {
      "constant": true,
      "inputs": [
        {
          "name": "_point",
          "type": "uint32"
        },
        {
          "name": "_time",
          "type": "uint256"
        }
      ],
      "name": "getSpawnLimit",
      "outputs": [
        {
          "name": "limit",
          "type": "uint32"
        }
      ],
      "payable": false,
      "stateMutability": "view",
      "type": "function"
    },
    {
      "constant": true,
      "inputs": [
        {
          "name": "_point",
          "type": "uint32"
        },
        {
          "name": "_sponsor",
          "type": "uint32"
        }
      ],
      "name": "canEscapeTo",
      "outputs": [
        {
          "name": "canEscape",
          "type": "bool"
        }
      ],
      "payable": false,
      "stateMutability": "view",
      "type": "function"
    },
    {
      "constant": false,
      "inputs": [
        {
          "name": "_point",
          "type": "uint32"
        },
        {
          "name": "_manager",
          "type": "address"
        }
      ],
      "name": "setManagementProxy",
      "outputs": [],
      "payable": false,
      "stateMutability": "nonpayable",
      "type": "function"
    },
    {
      "constant": false,
      "inputs": [
        {
          "name": "_prefix",
          "type": "uint16"
        },
        {
          "name": "_spawnProxy",
          "type": "address"
        }
      ],
      "name": "setSpawnProxy",
      "outputs": [],
      "payable": false,
      "stateMutability": "nonpayable",
      "type": "function"
    },
    {
      "constant": false,
      "inputs": [
        {
          "name": "_galaxy",
          "type": "uint8"
        },
        {
          "name": "_voter",
          "type": "address"
        }
      ],
      "name": "setVotingProxy",
      "outputs": [],
      "payable": false,
      "stateMutability": "nonpayable",
      "type": "function"
    },
    {
      "constant": false,
      "inputs": [
        {
          "name": "_point",
          "type": "uint32"
        },
        {
          "name": "_transferProxy",
          "type": "address"
        }
      ],
      "name": "setTransferProxy",
      "outputs": [],
      "payable": false,
      "stateMutability": "nonpayable",
      "type": "function"
    },
    {
      "constant": false,
      "inputs": [
        {
          "name": "_galaxy",
          "type": "uint8"
        },
        {
          "name": "_proposal",
          "type": "address"
        }
      ],
      "name": "startUpgradePoll",
      "outputs": [],
      "payable": false,
      "stateMutability": "nonpayable",
      "type": "function"
    },
    {
      "constant": false,
      "inputs": [
        {
          "name": "_galaxy",
          "type": "uint8"
        },
        {
          "name": "_proposal",
          "type": "bytes32"
        }
      ],
      "name": "startDocumentPoll",
      "outputs": [],
      "payable": false,
      "stateMutability": "nonpayable",
      "type": "function"
    },
    {
      "constant": false,
      "inputs": [
        {
          "name": "_galaxy",
          "type": "uint8"
        },
        {
          "name": "_proposal",
          "type": "address"
        },
        {
          "name": "_vote",
          "type": "bool"
        }
      ],
      "name": "castUpgradeVote",
      "outputs": [],
      "payable": false,
      "stateMutability": "nonpayable",
      "type": "function"
    },
    {
      "constant": false,
      "inputs": [
        {
          "name": "_galaxy",
          "type": "uint8"
        },
        {
          "name": "_proposal",
          "type": "bytes32"
        },
        {
          "name": "_vote",
          "type": "bool"
        }
      ],
      "name": "castDocumentVote",
      "outputs": [],
      "payable": false,
      "stateMutability": "nonpayable",
      "type": "function"
    },
    {
      "constant": false,
      "inputs": [
        {
          "name": "_proposal",
          "type": "address"
        }
      ],
      "name": "updateUpgradePoll",
      "outputs": [],
      "payable": false,
      "stateMutability": "nonpayable",
      "type": "function"
    },
    {
      "constant": false,
      "inputs": [
        {
          "name": "_proposal",
          "type": "bytes32"
        }
      ],
      "name": "updateDocumentPoll",
      "outputs": [],
      "payable": false,
      "stateMutability": "nonpayable",
      "type": "function"
    },
    {
      "constant": false,
      "inputs": [
        {
          "name": "_galaxy",
          "type": "uint8"
        },
        {
          "name": "_target",
          "type": "address"
        }
      ],
      "name": "createGalaxy",
      "outputs": [],
      "payable": false,
      "stateMutability": "nonpayable",
      "type": "function"
    },
    {
      "constant": false,
      "inputs": [
        {
          "name": "_primary",
          "type": "string"
        },
        {
          "name": "_secondary",
          "type": "string"
        },
        {
          "name": "_tertiary",
          "type": "string"
        }
      ],
      "name": "setDnsDomains",
      "outputs": [],
      "payable": false,
      "stateMutability": "nonpayable",
      "type": "function"
    }
  ],
  "bytecode": "0x60806040523480156200001157600080fd5b5060405160808062004be683398101604090815281516020830151918301516060909301516000805433600160a060020a031991821617909155600180548216600160a060020a038087169190911790915560038054831682861617905560028054909216908616179055909290620000b37f01ffc9a70000000000000000000000000000000000000000000000000000000064010000000062000174810204565b60058054600160a060020a031916600160a060020a038316179055620001027f80ac58cd0000000000000000000000000000000000000000000000000000000064010000000062000174810204565b620001367f5b5e139f0000000000000000000000000000000000000000000000000000000064010000000062000174810204565b6200016a7f7f5828d00000000000000000000000000000000000000000000000000000000064010000000062000174810204565b50505050620001e1565b7fffffffff000000000000000000000000000000000000000000000000000000008082161415620001a457600080fd5b7fffffffff00000000000000000000000000000000000000000000000000000000166000908152600460205260409020805460ff19166001179055565b6149f580620001f16000396000f30060806040526004361061020b5763ffffffff60e060020a60003504166301ffc9a7811461021057806305bbf5db1461024657806306fdde0314610266578063073a7804146102f0578063081812fc1461030e578063095ea7b314610342578063172a735c146103665780631824a46b1461037e57806319fa8f50146103935780631e79a85b146103c557806323b872dd146103f457806326295b521461041e5780632c7ba5641461044557806342842e0e1461046f5780634447e48c146104995780634a013296146104ca5780634f558e79146104ee57806351de5541146105065780635623715b146105325780636352211e146105535780636eb582241461056b57806370a082311461058e578063715018a6146105c15780638866bb2c146105d65780638da5cb5b1461060057806395d89b41146106155780639e988d131461062a578063a0d3253f14610651578063a22cb4651461067b578063a60e8bd6146106a1578063ae326221146106c8578063b88d4fde146106f0578063bac55edd1461075f578063bbe21ca514610797578063bf5772b9146107b5578063c1b9d98b146107d9578063c6d761d4146107f7578063c87b56dd14610815578063d40ffacb1461082d578063dcc59b6f14610842578063e64853c414610857578063e985e9c51461086c578063ed969f6814610893578063ef20bff8146108a8578063f2fde38b146108e2575b600080fd5b34801561021c57600080fd5b50610232600160e060020a031960043516610903565b604080519115158252519081900360200190f35b34801561025257600080fd5b5061026460ff60043516602435610922565b005b34801561027257600080fd5b5061027b610ac1565b6040805160208082528351818301528351919283929083019185019080838360005b838110156102b557818101518382015260200161029d565b50505050905090810190601f1680156102e25780820380516001836020036101000a031916815260200191505b509250505060405180910390f35b3480156102fc57600080fd5b5061026463ffffffff60043516610af8565b34801561031a57600080fd5b50610326600435610d39565b60408051600160a060020a039092168252519081900360200190f35b34801561034e57600080fd5b50610264600160a060020a0360043516602435610e79565b34801561037257600080fd5b50610264600435610e9a565b34801561038a57600080fd5b50610264610f2b565b34801561039f57600080fd5b506103a861106a565b60408051600160e060020a03199092168252519081900360200190f35b3480156103d157600080fd5b5061026463ffffffff60043516600160a060020a0360243516604435151561108e565b34801561040057600080fd5b50610264600160a060020a03600435811690602435166044356118d3565b34801561042a57600080fd5b5061026460ff60043516600160a060020a036024351661198b565b34801561045157600080fd5b5061026463ffffffff60043516600160a060020a0360243516611af0565b34801561047b57600080fd5b50610264600160a060020a0360043581169060243516604435611ced565b3480156104a557600080fd5b5061026463ffffffff6004358116906024359060443590606435166084351515611d09565b3480156104d657600080fd5b5061023263ffffffff60043581169060243516611f66565b3480156104fa57600080fd5b506102326004356121dd565b34801561051257600080fd5b5061026460ff60043516600160a060020a03602435166044351515612277565b34801561053e57600080fd5b50610264600160a060020a0360043516612448565b34801561055f57600080fd5b506103266004356124f0565b34801561057757600080fd5b5061026460ff60043516602435604435151561261f565b34801561059a57600080fd5b506105af600160a060020a03600435166127e5565b60408051918252519081900360200190f35b3480156105cd57600080fd5b50610264612864565b3480156105e257600080fd5b5061026463ffffffff60043516600160a060020a03602435166128d0565b34801561060c57600080fd5b50610326612a5f565b34801561062157600080fd5b5061027b612a6e565b34801561063657600080fd5b5061026460ff60043516600160a060020a0360243516612aa5565b34801561065d57600080fd5b5061026463ffffffff60043516600160a060020a0360243516612caf565b34801561068757600080fd5b50610264600160a060020a036004351660243515156131af565b3480156106ad57600080fd5b5061026460ff60043516600160a060020a0360243516613297565b3480156106d457600080fd5b5061026461ffff60043516600160a060020a0360243516613423565b3480156106fc57600080fd5b50604080516020601f60643560048181013592830184900484028501840190955281845261026494600160a060020a0381358116956024803590921695604435953695608494019181908401838280828437509497506135b19650505050505050565b34801561076b57600080fd5b50610264602460048035828101929082013591813580830192908201359160443591820191013561371b565b3480156107a357600080fd5b5061026463ffffffff600435166137f4565b3480156107c157600080fd5b5061026463ffffffff60043581169060243516613a1a565b3480156107e557600080fd5b5061026463ffffffff60043516613bd4565b34801561080357600080fd5b5061026463ffffffff60043516613dfa565b34801561082157600080fd5b5061027b600435613fab565b34801561083957600080fd5b5061032661425e565b34801561084e57600080fd5b5061032661426d565b34801561086357600080fd5b5061032661427c565b34801561087857600080fd5b50610232600160a060020a036004358116906024351661428b565b34801561089f57600080fd5b506103266142fe565b3480156108b457600080fd5b506108c963ffffffff6004351660243561430d565b6040805163ffffffff9092168252519081900360200190f35b3480156108ee57600080fd5b50610264600160a060020a0360043516614403565b600160e060020a03191660009081526004602052604090205460ff1690565b6001546040805160e060020a63b65afedd02815260ff85166004820181905233602483015291519192600160a060020a03169163b65afedd916044808201926020929091908290030181600087803b15801561097d57600080fd5b505af1158015610991573d6000803e3d6000fd5b505050506040513d60208110156109a757600080fd5b50518015610a3357506001546040805160e060020a635e19b30502815263ffffffff841660048201529051600160a060020a0390921691635e19b305916024808201926020929091908290030181600087803b158015610a0657600080fd5b505af1158015610a1a573d6000803e3d6000fd5b505050506040513d6020811015610a3057600080fd5b50515b1515610a3e57600080fd5b600254604080517f9a33aff9000000000000000000000000000000000000000000000000000000008152600481018590529051600160a060020a0390921691639a33aff99160248082019260009290919082900301818387803b158015610aa457600080fd5b505af1158015610ab8573d6000803e3d6000fd5b50505050505050565b60408051808201909152600e81527f417a696d75746820506f696e7473000000000000000000000000000000000000602082015290565b600154604080517f77eb4c5000000000000000000000000000000000000000000000000000000000815263ffffffff841660048201529051600160a060020a03909216916377eb4c50916024808201926020929091908290030181600087803b158015610b6457600080fd5b505af1158015610b78573d6000803e3d6000fd5b505050506040513d6020811015610b8e57600080fd5b50518015610ca85750600154604080517f439f7d3c00000000000000000000000000000000000000000000000000000000815263ffffffff841660048201529051600160a060020a0390921691639137fe0a91839163439f7d3c916024808201926020929091908290030181600087803b158015610c0b57600080fd5b505af1158015610c1f573d6000803e3d6000fd5b505050506040513d6020811015610c3557600080fd5b50516040805163ffffffff84811660e060020a02825290921660048301523360248301525160448083019260209291908290030181600087803b158015610c7b57600080fd5b505af1158015610c8f573d6000803e3d6000fd5b505050506040513d6020811015610ca557600080fd5b50515b1515610cb357600080fd5b600154604080517fbc562b9e00000000000000000000000000000000000000000000000000000000815263ffffffff841660048201529051600160a060020a039092169163bc562b9e9160248082019260009290919082900301818387803b158015610d1e57600080fd5b505af1158015610d32573d6000803e3d6000fd5b5050505050565b6000816401000000008110610d4d57600080fd5b6001546040805160e060020a635e19b30502815263ffffffff861660048201529051600160a060020a0390921691635e19b305916024808201926020929091908290030181600087803b158015610da357600080fd5b505af1158015610db7573d6000803e3d6000fd5b505050506040513d6020811015610dcd57600080fd5b50511515610dda57600080fd5b600154604080517f24541f7800000000000000000000000000000000000000000000000000000000815263ffffffff861660048201529051600160a060020a03909216916324541f78916024808201926020929091908290030181600087803b158015610e4657600080fd5b505af1158015610e5a573d6000803e3d6000fd5b505050506040513d6020811015610e7057600080fd5b50519392505050565b806401000000008110610e8b57600080fd5b610e958284611af0565b505050565b600254604080517f172a735c000000000000000000000000000000000000000000000000000000008152600481018490529051600160a060020a039092169163172a735c916024808201926020929091908290030181600087803b158015610f0157600080fd5b505af1158015610f15573d6000803e3d6000fd5b505050506040513d6020811015610e9557600080fd5b600354600160a060020a031633148015610fcb5750600160009054906101000a9004600160a060020a0316600160a060020a0316638da5cb5b6040518163ffffffff1660e060020a028152600401602060405180830381600087803b158015610f9357600080fd5b505af1158015610fa7573d6000803e3d6000fd5b505050506040513d6020811015610fbd57600080fd5b5051600160a060020a031630145b801561105d5750600260009054906101000a9004600160a060020a0316600160a060020a0316638da5cb5b6040518163ffffffff1660e060020a028152600401602060405180830381600087803b15801561102557600080fd5b505af1158015611039573d6000803e3d6000fd5b505050506040513d602081101561104f57600080fd5b5051600160a060020a031630145b151561106857600080fd5b565b7f01ffc9a70000000000000000000000000000000000000000000000000000000081565b600154604080517f728aa85700000000000000000000000000000000000000000000000000000000815263ffffffff861660048201523360248201529051600092600160a060020a03169163728aa85791604480830192602092919082900301818787803b1580156110ff57600080fd5b505af1158015611113573d6000803e3d6000fd5b505050506040513d602081101561112957600080fd5b5051151561113657600080fd5b6001546040805160e060020a635e19b30502815263ffffffff871660048201529051600160a060020a0390921691635e19b305916024808201926020929091908290030181600087803b15801561118c57600080fd5b505af11580156111a0573d6000803e3d6000fd5b505050506040513d60208110156111b657600080fd5b5051151561124257600154604080517f7bc702a100000000000000000000000000000000000000000000000000000000815263ffffffff871660048201529051600160a060020a0390921691637bc702a19160248082019260009290919082900301818387803b15801561122957600080fd5b505af115801561123d573d6000803e3d6000fd5b505050505b6001546040805160e060020a63caf590f902815263ffffffff87166004820152600160a060020a0386811660248301529151919092169163caf590f99160448083019260209291908290030181600087803b1580156112a057600080fd5b505af11580156112b4573d6000803e3d6000fd5b505050506040513d60208110156112ca57600080fd5b5051151561149b576001546040805160e160020a63310d91f102815263ffffffff871660048201529051600160a060020a039092169163621b23e2916024808201926020929091908290030181600087803b15801561132857600080fd5b505af115801561133c573d6000803e3d6000fd5b505050506040513d602081101561135257600080fd5b5051600154604080517fddc3595000000000000000000000000000000000000000000000000000000000815263ffffffff88166004820152600160a060020a038781166024830152915193945091169163ddc359509160448082019260009290919082900301818387803b1580156113c957600080fd5b505af11580156113dd573d6000803e3d6000fd5b50506001546040805160e260020a630b1ee95902815263ffffffff891660048201526000602482018190529151600160a060020a039093169450632c7ba56493506044808201939182900301818387803b15801561143a57600080fd5b505af115801561144e573d6000803e3d6000fd5b50506040805163ffffffff881681529051600160a060020a038088169450851692507fddf252ad1be2c89b69c2b068fc378daa952ba7f163c4a11628f55a4df523b3ef9181900360200190a35b81156118cd576001546040805160e060020a636d09887b02815263ffffffff871660048201529051600160a060020a0390921691636d09887b916024808201926020929091908290030181600087803b1580156114f757600080fd5b505af115801561150b573d6000803e3d6000fd5b505050506040513d602081101561152157600080fd5b50511561164157600154604080517ff491491900000000000000000000000000000000000000000000000000000000815263ffffffff871660048201529051600160a060020a039092169163f49149199160248082019260009290919082900301818387803b15801561159357600080fd5b505af11580156115a7573d6000803e3d6000fd5b5050600154604080517ff9b87d4000000000000000000000000000000000000000000000000000000000815263ffffffff8916600482015260006024820181905260448201819052606482018190529151600160a060020a03909316945063f9b87d4093506084808201939182900301818387803b15801561162857600080fd5b505af115801561163c573d6000803e3d6000fd5b505050505b600154604080517f8866bb2c00000000000000000000000000000000000000000000000000000000815263ffffffff871660048201526000602482018190529151600160a060020a0390931692638866bb2c9260448084019391929182900301818387803b1580156116b257600080fd5b505af11580156116c6573d6000803e3d6000fd5b5050600154604080517fa297c1d800000000000000000000000000000000000000000000000000000000815263ffffffff891660048201526000602482018190529151600160a060020a03909316945063a297c1d893506044808201939182900301818387803b15801561173957600080fd5b505af115801561174d573d6000803e3d6000fd5b50506001546040805160e260020a630b1ee95902815263ffffffff891660048201526000602482018190529151600160a060020a039093169450632c7ba56493506044808201939182900301818387803b1580156117aa57600080fd5b505af11580156117be573d6000803e3d6000fd5b5050600154604080517f2a19642c00000000000000000000000000000000000000000000000000000000815263ffffffff891660048201526000602482018190529151600160a060020a039093169450632a19642c93506044808201939182900301818387803b15801561183157600080fd5b505af1158015611845573d6000803e3d6000fd5b5050600554604080517feaae46e500000000000000000000000000000000000000000000000000000000815263ffffffff891660048201529051600160a060020a03909216935063eaae46e5925060248082019260009290919082900301818387803b1580156118b457600080fd5b505af11580156118c8573d6000803e3d6000fd5b505050505b50505050565b60008164010000000081106118e757600080fd5b6001546040805160e060020a63caf590f902815263ffffffff86166004820152600160a060020a0388811660248301529151869550919092169163caf590f99160448083019260209291908290030181600087803b15801561194857600080fd5b505af115801561195c573d6000803e3d6000fd5b505050506040513d602081101561197257600080fd5b5051151561197f57600080fd5b610d328285600161108e565b600054600160a060020a031633146119a257600080fd5b6001546040805160e060020a63caf590f902815260ff851660048201526000602482018190529151600160a060020a039093169263caf590f992604480840193602093929083900390910190829087803b1580156119ff57600080fd5b505af1158015611a13573d6000803e3d6000fd5b505050506040513d6020811015611a2957600080fd5b50518015611a3f5750600160a060020a03811615155b1515611a4a57600080fd5b600260009054906101000a9004600160a060020a0316600160a060020a031663246d41a96040518163ffffffff1660e060020a028152600401600060405180830381600087803b158015611a9d57600080fd5b505af1158015611ab1573d6000803e3d6000fd5b50505050600160a060020a038116331415611adc57611ad78260ff168260016000614426565b611aec565b611aec8260ff1682600033614426565b5050565b6001546040805160e160020a63310d91f102815263ffffffff851660048201529051600092600160a060020a03169163621b23e291602480830192602092919082900301818787803b158015611b4557600080fd5b505af1158015611b59573d6000803e3d6000fd5b505050506040513d6020811015611b6f57600080fd5b50519050600160a060020a038116331480611c205750600154604080517fb6363cf2000000000000000000000000000000000000000000000000000000008152600160a060020a0384811660048301523360248301529151919092169163b6363cf29160448083019260209291908290030181600087803b158015611bf357600080fd5b505af1158015611c07573d6000803e3d6000fd5b505050506040513d6020811015611c1d57600080fd5b50515b1515611c2b57600080fd5b6001546040805160e260020a630b1ee95902815263ffffffff86166004820152600160a060020a03858116602483015291519190921691632c7ba56491604480830192600092919082900301818387803b158015611c8857600080fd5b505af1158015611c9c573d6000803e3d6000fd5b50506040805163ffffffff871681529051600160a060020a038087169450851692507f8c5be1e5ebec7d5bd14f71427d1e84f3dd0314c0f7b2291e5b200ac8c7c3b9259181900360200190a3505050565b610e9583838360206040519081016040528060008152506135b1565b600154604080517f9137fe0a00000000000000000000000000000000000000000000000000000000815263ffffffff8816600482015233602482015290518792600160a060020a031691639137fe0a9160448083019260209291908290030181600087803b158015611d7a57600080fd5b505af1158015611d8e573d6000803e3d6000fd5b505050506040513d6020811015611da457600080fd5b50518015611e3057506001546040805160e060020a635e19b30502815263ffffffff841660048201529051600160a060020a0390921691635e19b305916024808201926020929091908290030181600087803b158015611e0357600080fd5b505af1158015611e17573d6000803e3d6000fd5b505050506040513d6020811015611e2d57600080fd5b50515b1515611e3b57600080fd5b8115611ec557600154604080517ff491491900000000000000000000000000000000000000000000000000000000815263ffffffff891660048201529051600160a060020a039092169163f49149199160248082019260009290919082900301818387803b158015611eac57600080fd5b505af1158015611ec0573d6000803e3d6000fd5b505050505b600154604080517ff9b87d4000000000000000000000000000000000000000000000000000000000815263ffffffff808a1660048301526024820189905260448201889052861660648201529051600160a060020a039092169163f9b87d409160848082019260009290919082900301818387803b158015611f4657600080fd5b505af1158015611f5a573d6000803e3d6000fd5b50505050505050505050565b6001546040805160e060020a636d09887b02815263ffffffff84166004820152905160009283928392600160a060020a0390921691636d09887b9160248082019260209290919082900301818787803b158015611fc257600080fd5b505af1158015611fd6573d6000803e3d6000fd5b505050506040513d6020811015611fec57600080fd5b50511515611ffd57600092506121d5565b6001546040805160e060020a639397640502815263ffffffff881660048201529051600160a060020a03909216916393976405916024808201926020929091908290030181600087803b15801561205357600080fd5b505af1158015612067573d6000803e3d6000fd5b505050506040513d602081101561207d57600080fd5b50516001546040805160e060020a639397640502815263ffffffff881660048201529051929450600160a060020a03909116916393976405916024808201926020929091908290030181600087803b1580156120d857600080fd5b505af11580156120ec573d6000803e3d6000fd5b505050506040513d602081101561210257600080fd5b5051905081600281111561211257fe5b60ff1681600281111561212157fe5b60010160ff1614806121d2575081600281111561213a57fe5b81600281111561214657fe5b1480156121d257506001546040805160e060020a636d09887b02815263ffffffff881660048201529051600160a060020a0390921691636d09887b916024808201926020929091908290030181600087803b1580156121a457600080fd5b505af11580156121b8573d6000803e3d6000fd5b505050506040513d60208110156121ce57600080fd5b5051155b92505b505092915050565b60006401000000008210801561227157506001546040805160e060020a635e19b30502815263ffffffff851660048201529051600160a060020a0390921691635e19b305916024808201926020929091908290030181600087803b15801561224457600080fd5b505af1158015612258573d6000803e3d6000fd5b505050506040513d602081101561226e57600080fd5b50515b92915050565b6001546040805160e060020a63b65afedd02815260ff8616600482018190523360248301529151600093600160a060020a03169163b65afedd91604480830192602092919082900301818887803b1580156122d157600080fd5b505af11580156122e5573d6000803e3d6000fd5b505050506040513d60208110156122fb57600080fd5b5051801561238757506001546040805160e060020a635e19b30502815263ffffffff841660048201529051600160a060020a0390921691635e19b305916024808201926020929091908290030181600087803b15801561235a57600080fd5b505af115801561236e573d6000803e3d6000fd5b505050506040513d602081101561238457600080fd5b50515b151561239257600080fd5b600254604080517f51de554100000000000000000000000000000000000000000000000000000000815260ff88166004820152600160a060020a0387811660248301528615156044830152915191909216916351de55419160648083019260209291908290030181600087803b15801561240b57600080fd5b505af115801561241f573d6000803e3d6000fd5b505050506040513d602081101561243557600080fd5b505191508115610d3257610d32846147a7565b600254604080517f5623715b000000000000000000000000000000000000000000000000000000008152600160a060020a03848116600483015291516000939290921691635623715b9160248082019260209290919082900301818787803b1580156124b357600080fd5b505af11580156124c7573d6000803e3d6000fd5b505050506040513d60208110156124dd57600080fd5b505190508015611aec57611aec826147a7565b60008082640100000000811061250557600080fd5b6001546040805160e060020a635e19b30502815263ffffffff871660048201529051869450600160a060020a0390921691635e19b305916024808201926020929091908290030181600087803b15801561255e57600080fd5b505af1158015612572573d6000803e3d6000fd5b505050506040513d602081101561258857600080fd5b5051151561259557600080fd5b6001546040805160e160020a63310d91f102815263ffffffff851660048201529051600160a060020a039092169163621b23e2916024808201926020929091908290030181600087803b1580156125eb57600080fd5b505af11580156125ff573d6000803e3d6000fd5b505050506040513d602081101561261557600080fd5b5051949350505050565b6001546040805160e060020a63b65afedd02815260ff86166004820181905233602483015291519192600160a060020a03169163b65afedd916044808201926020929091908290030181600087803b15801561267a57600080fd5b505af115801561268e573d6000803e3d6000fd5b505050506040513d60208110156126a457600080fd5b5051801561273057506001546040805160e060020a635e19b30502815263ffffffff841660048201529051600160a060020a0390921691635e19b305916024808201926020929091908290030181600087803b15801561270357600080fd5b505af1158015612717573d6000803e3d6000fd5b505050506040513d602081101561272d57600080fd5b50515b151561273b57600080fd5b600254604080517f6eb5822400000000000000000000000000000000000000000000000000000000815260ff871660048201526024810186905284151560448201529051600160a060020a0390921691636eb58224916064808201926020929091908290030181600087803b1580156127b357600080fd5b505af11580156127c7573d6000803e3d6000fd5b505050506040513d60208110156127dd57600080fd5b505050505050565b6000600160a060020a03821615156127fc57600080fd5b600154604080517f12afbc78000000000000000000000000000000000000000000000000000000008152600160a060020a038581166004830152915191909216916312afbc789160248083019260209291908290030181600087803b15801561224457600080fd5b600054600160a060020a0316331461287b57600080fd5b60008054604051600160a060020a03909116917ff8df31144d9c2f0f6b59d69b8b98abd5459d07f2742c4df920b25aae33c6482091a26000805473ffffffffffffffffffffffffffffffffffffffff19169055565b6001546040805160e060020a63caf590f902815263ffffffff8516600482015233602482015290518492600160a060020a03169163caf590f99160448083019260209291908290030181600087803b15801561292b57600080fd5b505af115801561293f573d6000803e3d6000fd5b505050506040513d602081101561295557600080fd5b505180156129e157506001546040805160e060020a635e19b30502815263ffffffff841660048201529051600160a060020a0390921691635e19b305916024808201926020929091908290030181600087803b1580156129b457600080fd5b505af11580156129c8573d6000803e3d6000fd5b505050506040513d60208110156129de57600080fd5b50515b15156129ec57600080fd5b600154604080517f8866bb2c00000000000000000000000000000000000000000000000000000000815263ffffffff86166004820152600160a060020a03858116602483015291519190921691638866bb2c91604480830192600092919082900301818387803b158015610aa457600080fd5b600054600160a060020a031681565b60408051808201909152600381527f415a500000000000000000000000000000000000000000000000000000000000602082015290565b6001546040805160e060020a63b65afedd02815260ff85166004820181905233602483015291519192600160a060020a03169163b65afedd916044808201926020929091908290030181600087803b158015612b0057600080fd5b505af1158015612b14573d6000803e3d6000fd5b505050506040513d6020811015612b2a57600080fd5b50518015612bb657506001546040805160e060020a635e19b30502815263ffffffff841660048201529051600160a060020a0390921691635e19b305916024808201926020929091908290030181600087803b158015612b8957600080fd5b505af1158015612b9d573d6000803e3d6000fd5b505050506040513d6020811015612bb357600080fd5b50515b1515612bc157600080fd5b30600160a060020a031682600160a060020a031663ed969f686040518163ffffffff1660e060020a028152600401602060405180830381600087803b158015612c0957600080fd5b505af1158015612c1d573d6000803e3d6000fd5b505050506040513d6020811015612c3357600080fd5b5051600160a060020a031614612c4857600080fd5b600254604080517fe31f3e0c000000000000000000000000000000000000000000000000000000008152600160a060020a0385811660048301529151919092169163e31f3e0c91602480830192600092919082900301818387803b158015610aa457600080fd5b6001546040805160e060020a63caf590f902815263ffffffff8516600482015260006024820181905291519192600160a060020a03169163caf590f99160448082019260209290919082900301818787803b158015612d0d57600080fd5b505af1158015612d21573d6000803e3d6000fd5b505050506040513d6020811015612d3757600080fd5b50511515612d4457600080fd5b600154604080517fe4a358d700000000000000000000000000000000000000000000000000000000815263ffffffff861660048201529051600160a060020a039092169163e4a358d7916024808201926020929091908290030181600087803b158015612db057600080fd5b505af1158015612dc4573d6000803e3d6000fd5b505050506040513d6020811015612dda57600080fd5b50516001546040805160e060020a639397640502815263ffffffff871660048201529051929350600160a060020a03909116916393976405916024808201926020929091908290030181600087803b158015612e3557600080fd5b505af1158015612e49573d6000803e3d6000fd5b505050506040513d6020811015612e5f57600080fd5b50516002811115612e6c57fe5b6001546040805160e060020a639397640502815261ffff85166004820152905160ff9390931692600160a060020a03909216916393976405916024808201926020929091908290030181600087803b158015612ec757600080fd5b505af1158015612edb573d6000803e3d6000fd5b505050506040513d6020811015612ef157600080fd5b50516002811115612efe57fe5b60010160ff16141515612f1057600080fd5b6001546040805160e060020a636d09887b02815261ffff841660048201529051600160a060020a0390921691636d09887b916024808201926020929091908290030181600087803b158015612f6457600080fd5b505af1158015612f78573d6000803e3d6000fd5b505050506040513d6020811015612f8e57600080fd5b5051801561304d5750612fa58161ffff164261430d565b600154604080517f293a916900000000000000000000000000000000000000000000000000000000815261ffff85166004820152905163ffffffff9390931692600160a060020a039092169163293a9169916024808201926020929091908290030181600087803b15801561301957600080fd5b505af115801561302d573d6000803e3d6000fd5b505050506040513d602081101561304357600080fd5b505163ffffffff16105b151561305857600080fd5b600154604080517f8a27bf5900000000000000000000000000000000000000000000000000000000815261ffff841660048201523360248201529051600160a060020a0390921691638a27bf59916044808201926020929091908290030181600087803b1580156130c857600080fd5b505af11580156130dc573d6000803e3d6000fd5b505050506040513d60208110156130f257600080fd5b505115156130ff57600080fd5b33600160a060020a03831614156131235761311e838360016000614426565b610e95565b6001546040805160e160020a63310d91f102815261ffff841660048201529051610e959286928692600092600160a060020a03169163621b23e291602480830192602092919082900301818787803b15801561317e57600080fd5b505af1158015613192573d6000803e3d6000fd5b505050506040513d60208110156131a857600080fd5b5051614426565b600160a060020a03821615156131c457600080fd5b600154604080517fbc735d90000000000000000000000000000000000000000000000000000000008152336004820152600160a060020a03858116602483015284151560448301529151919092169163bc735d9091606480830192600092919082900301818387803b15801561323957600080fd5b505af115801561324d573d6000803e3d6000fd5b50506040805184151581529051600160a060020a03861693503392507f17307eab39ab6107e8899845ad3d59bd9653f200f220920489ca2b5937696c319181900360200190a35050565b6001546040805160e060020a63caf590f902815260ff85166004820181905233602483015291519192600160a060020a03169163caf590f9916044808201926020929091908290030181600087803b1580156132f257600080fd5b505af1158015613306573d6000803e3d6000fd5b505050506040513d602081101561331c57600080fd5b505180156133a857506001546040805160e060020a635e19b30502815263ffffffff841660048201529051600160a060020a0390921691635e19b305916024808201926020929091908290030181600087803b15801561337b57600080fd5b505af115801561338f573d6000803e3d6000fd5b505050506040513d60208110156133a557600080fd5b50515b15156133b357600080fd5b600154604080517fa297c1d800000000000000000000000000000000000000000000000000000000815260ff86166004820152600160a060020a0385811660248301529151919092169163a297c1d891604480830192600092919082900301818387803b158015610aa457600080fd5b6001546040805160e060020a63caf590f902815261ffff85166004820181905233602483015291519192600160a060020a03169163caf590f9916044808201926020929091908290030181600087803b15801561347f57600080fd5b505af1158015613493573d6000803e3d6000fd5b505050506040513d60208110156134a957600080fd5b5051801561353557506001546040805160e060020a635e19b30502815263ffffffff841660048201529051600160a060020a0390921691635e19b305916024808201926020929091908290030181600087803b15801561350857600080fd5b505af115801561351c573d6000803e3d6000fd5b505050506040513d602081101561353257600080fd5b50515b151561354057600080fd5b600154604080517f2a19642c00000000000000000000000000000000000000000000000000000000815261ffff86166004820152600160a060020a03858116602483015291519190921691632a19642c91604480830192600092919082900301818387803b158015610aa457600080fd5b60006135be8585856118d3565b6135d084600160a060020a0316614944565b15610d32576040517f150b7a020000000000000000000000000000000000000000000000000000000081523360048201818152600160a060020a038881166024850152604484018790526080606485019081528651608486015286519189169463150b7a0294938b938a938a93909160a490910190602085019080838360005b83811015613668578181015183820152602001613650565b50505050905090810190601f1680156136955780820380516001836020036101000a031916815260200191505b5095505050505050602060405180830381600087803b1580156136b757600080fd5b505af11580156136cb573d6000803e3d6000fd5b505050506040513d60208110156136e157600080fd5b50519050600160e060020a031981167f150b7a020000000000000000000000000000000000000000000000000000000014610d3257600080fd5b600054600160a060020a0316331461373257600080fd5b6001546040517fbac55edd00000000000000000000000000000000000000000000000000000000815260606004820190815260648201889052600160a060020a039092169163bac55edd918991899189918991899189918190602481019060448101906084018a8a80828437909101858103845288815260200190508888808284379091018581038352868152602001905086868082843782019150509950505050505050505050600060405180830381600087803b158015611f4657600080fd5b600154604080517f9b350e1200000000000000000000000000000000000000000000000000000000815263ffffffff841660048201529051600160a060020a0390921691639b350e12916024808201926020929091908290030181600087803b15801561386057600080fd5b505af1158015613874573d6000803e3d6000fd5b505050506040513d602081101561388a57600080fd5b505180156139a45750600154604080517ff5af662100000000000000000000000000000000000000000000000000000000815263ffffffff841660048201529051600160a060020a0390921691639137fe0a91839163f5af6621916024808201926020929091908290030181600087803b15801561390757600080fd5b505af115801561391b573d6000803e3d6000fd5b505050506040513d602081101561393157600080fd5b50516040805163ffffffff84811660e060020a02825290921660048301523360248301525160448083019260209291908290030181600087803b15801561397757600080fd5b505af115801561398b573d6000803e3d6000fd5b505050506040513d60208110156139a157600080fd5b50515b15156139af57600080fd5b600154604080517fc6d761d400000000000000000000000000000000000000000000000000000000815263ffffffff841660048201529051600160a060020a039092169163c6d761d49160248082019260009290919082900301818387803b158015610d1e57600080fd5b600154604080517f9137fe0a00000000000000000000000000000000000000000000000000000000815263ffffffff8516600482015233602482015290518492600160a060020a031691639137fe0a9160448083019260209291908290030181600087803b158015613a8b57600080fd5b505af1158015613a9f573d6000803e3d6000fd5b505050506040513d6020811015613ab557600080fd5b50518015613b4157506001546040805160e060020a635e19b30502815263ffffffff841660048201529051600160a060020a0390921691635e19b305916024808201926020929091908290030181600087803b158015613b1457600080fd5b505af1158015613b28573d6000803e3d6000fd5b505050506040513d6020811015613b3e57600080fd5b50515b1515613b4c57600080fd5b613b568383611f66565b1515613b6157600080fd5b600154604080517fa634585900000000000000000000000000000000000000000000000000000000815263ffffffff8087166004830152851660248201529051600160a060020a039092169163a63458599160448082019260009290919082900301818387803b158015610aa457600080fd5b600154604080517f9b350e1200000000000000000000000000000000000000000000000000000000815263ffffffff841660048201529051600160a060020a0390921691639b350e12916024808201926020929091908290030181600087803b158015613c4057600080fd5b505af1158015613c54573d6000803e3d6000fd5b505050506040513d6020811015613c6a57600080fd5b50518015613d845750600154604080517ff5af662100000000000000000000000000000000000000000000000000000000815263ffffffff841660048201529051600160a060020a0390921691639137fe0a91839163f5af6621916024808201926020929091908290030181600087803b158015613ce757600080fd5b505af1158015613cfb573d6000803e3d6000fd5b505050506040513d6020811015613d1157600080fd5b50516040805163ffffffff84811660e060020a02825290921660048301523360248301525160448083019260209291908290030181600087803b158015613d5757600080fd5b505af1158015613d6b573d6000803e3d6000fd5b505050506040513d6020811015613d8157600080fd5b50515b1515613d8f57600080fd5b600154604080517f1306318000000000000000000000000000000000000000000000000000000000815263ffffffff841660048201529051600160a060020a039092169163130631809160248082019260009290919082900301818387803b158015610d1e57600080fd5b600154604080517f9137fe0a00000000000000000000000000000000000000000000000000000000815263ffffffff8416600482015233602482015290518392600160a060020a031691639137fe0a9160448083019260209291908290030181600087803b158015613e6b57600080fd5b505af1158015613e7f573d6000803e3d6000fd5b505050506040513d6020811015613e9557600080fd5b50518015613f2157506001546040805160e060020a635e19b30502815263ffffffff841660048201529051600160a060020a0390921691635e19b305916024808201926020929091908290030181600087803b158015613ef457600080fd5b505af1158015613f08573d6000803e3d6000fd5b505050506040513d6020811015613f1e57600080fd5b50515b1515613f2c57600080fd5b600154604080517fc6d761d400000000000000000000000000000000000000000000000000000000815263ffffffff851660048201529051600160a060020a039092169163c6d761d49160248082019260009290919082900301818387803b158015613f9757600080fd5b505af11580156127dd573d6000803e3d6000fd5b606080826401000000008110613fc057600080fd5b60408051606081018252602e81527f68747470733a2f2f617a696d7574682e6e6574776f726b2f6572633732312f3060208201527f3030303030303030302e6a736f6e0000000000000000000000000000000000009181019190915292508291507fff00000000000000000000000000000000000000000000000000000000000000600a633b9aca0086040660300160f860020a0216600081901a603f84015350600a6305f5e10085040660300160f860020a0282602081518110151561408357fe5b906020010190600160f860020a031916908160001a905350600a6298968085040660300160f860020a028260218151811015156140bc57fe5b906020010190600160f860020a031916908160001a905350600a620f424085040660300160f860020a028260228151811015156140f557fe5b906020010190600160f860020a031916908160001a905350600a620186a085040660300160f860020a0282602381518110151561412e57fe5b906020010190600160f860020a031916908160001a905350600a61271085040660300160f860020a0282602481518110151561416657fe5b906020010190600160f860020a031916908160001a905350600a6103e885040660300160f860020a0282602581518110151561419e57fe5b906020010190600160f860020a031916908160001a905350600a606485040660300160f860020a028260268151811015156141d557fe5b906020010190600160f860020a031916908160001a905350600a8085040660300160f860020a0282602781518110151561420b57fe5b906020010190600160f860020a031916908160001a905350600a840660300160f860020a0282602881518110151561423f57fe5b906020010190600160f860020a031916908160001a9053505050919050565b600154600160a060020a031681565b600554600160a060020a031681565b600254600160a060020a031681565b600154604080517fb6363cf2000000000000000000000000000000000000000000000000000000008152600160a060020a03858116600483015284811660248301529151600093929092169163b6363cf29160448082019260209290919082900301818787803b158015610e4657600080fd5b600354600160a060020a031681565b6001546040805160e060020a639397640502815263ffffffff85166004820152905160009283928392600160a060020a039092169163939764059160248082019260209290919082900301818787803b15801561436957600080fd5b505af115801561437d573d6000803e3d6000fd5b505050506040513d602081101561439357600080fd5b5051915060008260028111156143a557fe5b14156143b45760ff92506121d5565b60018260028111156143c257fe5b14156143fa57506301e13380635c2aad7f1984010460068110156143ef578060020a6104000292506143f5565b61ffff92505b6121d5565b600092506121d5565b600054600160a060020a0316331461441a57600080fd5b6144238161494c565b50565b600154604080517fc17ad9d800000000000000000000000000000000000000000000000000000000815263ffffffff871660048201529051600160a060020a039092169163c17ad9d89160248082019260009290919082900301818387803b15801561449157600080fd5b505af11580156144a5573d6000803e3d6000fd5b50505050811561460957600154604080517f7bc702a100000000000000000000000000000000000000000000000000000000815263ffffffff871660048201529051600160a060020a0390921691637bc702a19160248082019260009290919082900301818387803b15801561451a57600080fd5b505af115801561452e573d6000803e3d6000fd5b5050600154604080517fddc3595000000000000000000000000000000000000000000000000000000000815263ffffffff89166004820152600160a060020a038881166024830152915191909216935063ddc359509250604480830192600092919082900301818387803b1580156145a557600080fd5b505af11580156145b9573d6000803e3d6000fd5b50506040805163ffffffff881681529051600160a060020a0387169350600092507fddf252ad1be2c89b69c2b068fc378daa952ba7f163c4a11628f55a4df523b3ef9181900360200190a36118cd565b600154604080517fddc3595000000000000000000000000000000000000000000000000000000000815263ffffffff87166004820152600160a060020a0384811660248301529151919092169163ddc3595091604480830192600092919082900301818387803b15801561467c57600080fd5b505af1158015614690573d6000803e3d6000fd5b50506001546040805160e260020a630b1ee95902815263ffffffff89166004820152600160a060020a0388811660248301529151919092169350632c7ba5649250604480830192600092919082900301818387803b1580156146f157600080fd5b505af1158015614705573d6000803e3d6000fd5b50506040805163ffffffff881681529051600160a060020a0385169350600092507fddf252ad1be2c89b69c2b068fc378daa952ba7f163c4a11628f55a4df523b3ef9181900360200190a382600160a060020a031681600160a060020a03167f8c5be1e5ebec7d5bd14f71427d1e84f3dd0314c0f7b2291e5b200ac8c7c3b9258663ffffffff166040518082815260200191505060405180910390a350505050565b600154604080517ff2fde38b000000000000000000000000000000000000000000000000000000008152600160a060020a0384811660048301529151919092169163f2fde38b91602480830192600092919082900301818387803b15801561480e57600080fd5b505af1158015614822573d6000803e3d6000fd5b5050600254604080517ff2fde38b000000000000000000000000000000000000000000000000000000008152600160a060020a038681166004830152915191909216935063f2fde38b9250602480830192600092919082900301818387803b15801561488d57600080fd5b505af11580156148a1573d6000803e3d6000fd5b5050505080600160a060020a0316631824a46b6040518163ffffffff1660e060020a028152600401600060405180830381600087803b1580156148e357600080fd5b505af11580156148f7573d6000803e3d6000fd5b505060408051600160a060020a038516815290517fbc7cd75a20ee27fd9adebab32041f755214dbc6bffa90cc0225b39da2e5c2d3b9350908190036020019150a180600160a060020a0316ff5b6000903b1190565b600160a060020a038116151561496157600080fd5b60008054604051600160a060020a03808516939216917f8be0079c531659141344cd1fd0a4f28419497f9722a3daafe3b4186f6b6457e091a36000805473ffffffffffffffffffffffffffffffffffffffff1916600160a060020a03929092169190911790555600a165627a7a72305820333352e970207bcc61e57f1b23bf0476a21340e141a929f812f11a477274dd4e0029",
  "source": "//  the azimuth logic contract\n//  https://azimuth.network\n\npragma solidity 0.4.24;\n\nimport './EclipticBase.sol';\nimport './Claims.sol';\n\nimport 'openzeppelin-solidity/contracts/introspection/SupportsInterfaceWithLookup.sol';\nimport 'openzeppelin-solidity/contracts/token/ERC721/ERC721.sol';\nimport 'openzeppelin-solidity/contracts/token/ERC721/ERC721Receiver.sol';\nimport 'openzeppelin-solidity/contracts/AddressUtils.sol';\nimport 'openzeppelin-solidity/contracts/math/SafeMath.sol';\n\n//  Ecliptic: logic for interacting with the Azimuth ledger\n//\n//    This contract is the point of entry for all operations on the Azimuth\n//    ledger as stored in the Azimuth data contract. The functions herein\n//    are responsible for performing all necessary business logic.\n//    Examples of such logic include verifying permissions of the caller\n//    and ensuring a requested change is actually valid.\n//    Point owners can always operate on their own points. Ethereum addresses\n//    can also perform specific operations if they've been given the\n//    appropriate permissions. (For example, managers for general management,\n//    spawn proxies for spawning child points, etc.)\n//\n//    This contract uses external contracts (Azimuth, Polls) for data storage\n//    so that it itself can easily be replaced in case its logic needs to\n//    be changed. In other words, it can be upgraded. It does this by passing\n//    ownership of the data contracts to a new Ecliptic contract.\n//\n//    Because of this, it is advised for clients to not store this contract's\n//    address directly, but rather ask the Azimuth contract for its owner\n//    attribute to ensure transactions get sent to the latest Ecliptic.\n//    Alternatively, the ENS name ecliptic.eth will resolve to the latest\n//    Ecliptic as well.\n//\n//    Upgrading happens based on polls held by the senate (galaxy owners).\n//    Through this contract, the senate can submit proposals, opening polls\n//    for the senate to cast votes on. These proposals can be either hashes\n//    of documents or addresses of new Ecliptics.\n//    If an ecliptic proposal gains majority, this contract will transfer\n//    ownership of the data storage contracts to that address, so that it may\n//    operate on the data they contain. This contract will selfdestruct at\n//    the end of the upgrade process.\n//\n//    This contract implements the ERC721 interface for non-fungible tokens,\n//    allowing points to be managed using generic clients that support the\n//    standard. It also implements ERC165 to allow this to be discovered.\n//\ncontract Ecliptic is EclipticBase, SupportsInterfaceWithLookup, ERC721Metadata\n{\n  using SafeMath for uint256;\n  using AddressUtils for address;\n\n  //  Transfer: This emits when ownership of any NFT changes by any mechanism.\n  //            This event emits when NFTs are created (`from` == 0) and\n  //            destroyed (`to` == 0). At the time of any transfer, the\n  //            approved address for that NFT (if any) is reset to none.\n  //\n  event Transfer(address indexed _from, address indexed _to, uint256 _tokenId);\n\n  //  Approval: This emits when the approved address for an NFT is changed or\n  //            reaffirmed. The zero address indicates there is no approved\n  //            address. When a Transfer event emits, this also indicates that\n  //            the approved address for that NFT (if any) is reset to none.\n  //\n  event Approval(address indexed _owner, address indexed _approved,\n                 uint256 _tokenId);\n\n  //  ApprovalForAll: This emits when an operator is enabled or disabled for an\n  //                  owner. The operator can manage all NFTs of the owner.\n  //\n  event ApprovalForAll(address indexed _owner, address indexed _operator,\n                       bool _approved);\n\n  // erc721Received: equal to:\n  //        bytes4(keccak256(\"onERC721Received(address,address,uint256,bytes)\"))\n  //                 which can be also obtained as:\n  //        ERC721Receiver(0).onERC721Received.selector`\n  bytes4 constant erc721Received = 0x150b7a02;\n\n  //  claims: contract reference, for clearing claims on-transfer\n  //\n  Claims public claims;\n\n  //  constructor(): set data contract addresses and signal interface support\n  //\n  //    Note: during first deploy, ownership of these data contracts must\n  //    be manually transferred to this contract.\n  //\n  constructor(address _previous,\n              Azimuth _azimuth,\n              Polls _polls,\n              Claims _claims)\n    EclipticBase(_previous, _azimuth, _polls)\n    public\n  {\n    claims = _claims;\n\n    //  register supported interfaces for ERC165\n    //\n    _registerInterface(0x80ac58cd); // ERC721\n    _registerInterface(0x5b5e139f); // ERC721Metadata\n    _registerInterface(0x7f5828d0); // ERC173 (ownership)\n  }\n\n  //\n  //  ERC721 interface\n  //\n\n    //  balanceOf(): get the amount of points owned by _owner\n    //\n    function balanceOf(address _owner)\n      public\n      view\n      returns (uint256 balance)\n    {\n      require(0x0 != _owner);\n      return azimuth.getOwnedPointCount(_owner);\n    }\n\n    //  ownerOf(): get the current owner of point _tokenId\n    //\n    function ownerOf(uint256 _tokenId)\n      public\n      view\n      validPointId(_tokenId)\n      returns (address owner)\n    {\n      uint32 id = uint32(_tokenId);\n\n      //  this will throw if the owner is the zero address,\n      //  active points always have a valid owner.\n      //\n      require(azimuth.isActive(id));\n\n      return azimuth.getOwner(id);\n    }\n\n    //  exists(): returns true if point _tokenId is active\n    //\n    function exists(uint256 _tokenId)\n      public\n      view\n      returns (bool doesExist)\n    {\n      return ( (_tokenId < 0x100000000) &&\n               azimuth.isActive(uint32(_tokenId)) );\n    }\n\n    //  safeTransferFrom(): transfer point _tokenId from _from to _to\n    //\n    function safeTransferFrom(address _from, address _to, uint256 _tokenId)\n      public\n    {\n      //  transfer with empty data\n      //\n      safeTransferFrom(_from, _to, _tokenId, \"\");\n    }\n\n    //  safeTransferFrom(): transfer point _tokenId from _from to _to,\n    //                      and call recipient if it's a contract\n    //\n    function safeTransferFrom(address _from, address _to, uint256 _tokenId,\n                              bytes _data)\n      public\n    {\n      //  perform raw transfer\n      //\n      transferFrom(_from, _to, _tokenId);\n\n      //  do the callback last to avoid re-entrancy\n      //\n      if (_to.isContract())\n      {\n        bytes4 retval = ERC721Receiver(_to)\n                        .onERC721Received(msg.sender, _from, _tokenId, _data);\n        //\n        //  standard return idiom to confirm contract semantics\n        //\n        require(retval == erc721Received);\n      }\n    }\n\n    //  transferFrom(): transfer point _tokenId from _from to _to,\n    //                  WITHOUT notifying recipient contract\n    //\n    function transferFrom(address _from, address _to, uint256 _tokenId)\n      public\n      validPointId(_tokenId)\n    {\n      uint32 id = uint32(_tokenId);\n      require(azimuth.isOwner(id, _from));\n\n      //  the ERC721 operator/approved address (if any) is\n      //  accounted for in transferPoint()\n      //\n      transferPoint(id, _to, true);\n    }\n\n    //  approve(): allow _approved to transfer ownership of point\n    //             _tokenId\n    //\n    function approve(address _approved, uint256 _tokenId)\n      public\n      validPointId(_tokenId)\n    {\n      setTransferProxy(uint32(_tokenId), _approved);\n    }\n\n    //  setApprovalForAll(): allow or disallow _operator to\n    //                       transfer ownership of ALL points\n    //                       owned by :msg.sender\n    //\n    function setApprovalForAll(address _operator, bool _approved)\n      public\n    {\n      require(0x0 != _operator);\n      azimuth.setOperator(msg.sender, _operator, _approved);\n      emit ApprovalForAll(msg.sender, _operator, _approved);\n    }\n\n    //  getApproved(): get the approved address for point _tokenId\n    //\n    function getApproved(uint256 _tokenId)\n      public\n      view\n      validPointId(_tokenId)\n      returns (address approved)\n    {\n      //NOTE  redundant, transfer proxy cannot be set for\n      //      inactive points\n      //\n      require(azimuth.isActive(uint32(_tokenId)));\n      return azimuth.getTransferProxy(uint32(_tokenId));\n    }\n\n    //  isApprovedForAll(): returns true if _operator is an\n    //                      operator for _owner\n    //\n    function isApprovedForAll(address _owner, address _operator)\n      public\n      view\n      returns (bool result)\n    {\n      return azimuth.isOperator(_owner, _operator);\n    }\n\n  //\n  //  ERC721Metadata interface\n  //\n\n    //  name(): returns the name of a collection of points\n    //\n    function name()\n      external\n      view\n      returns (string)\n    {\n      return \"Azimuth Points\";\n    }\n\n    //  symbol(): returns an abbreviates name for points\n    //\n    function symbol()\n      external\n      view\n      returns (string)\n    {\n      return \"AZP\";\n    }\n\n    //  tokenURI(): returns a URL to an ERC-721 standard JSON file\n    //\n    function tokenURI(uint256 _tokenId)\n      public\n      view\n      validPointId(_tokenId)\n      returns (string _tokenURI)\n    {\n      _tokenURI = \"https://azimuth.network/erc721/0000000000.json\";\n      bytes memory _tokenURIBytes = bytes(_tokenURI);\n      _tokenURIBytes[31] = byte(48+(_tokenId / 1000000000) % 10);\n      _tokenURIBytes[32] = byte(48+(_tokenId / 100000000) % 10);\n      _tokenURIBytes[33] = byte(48+(_tokenId / 10000000) % 10);\n      _tokenURIBytes[34] = byte(48+(_tokenId / 1000000) % 10);\n      _tokenURIBytes[35] = byte(48+(_tokenId / 100000) % 10);\n      _tokenURIBytes[36] = byte(48+(_tokenId / 10000) % 10);\n      _tokenURIBytes[37] = byte(48+(_tokenId / 1000) % 10);\n      _tokenURIBytes[38] = byte(48+(_tokenId / 100) % 10);\n      _tokenURIBytes[39] = byte(48+(_tokenId / 10) % 10);\n      _tokenURIBytes[40] = byte(48+(_tokenId / 1) % 10);\n    }\n\n  //\n  //  Points interface\n  //\n\n    //  configureKeys(): configure _point with network public keys\n    //                   _encryptionKey, _authenticationKey,\n    //                   and corresponding _cryptoSuiteVersion,\n    //                   incrementing the point's continuity number if needed\n    //\n    function configureKeys(uint32 _point,\n                           bytes32 _encryptionKey,\n                           bytes32 _authenticationKey,\n                           uint32 _cryptoSuiteVersion,\n                           bool _discontinuous)\n      external\n      activePointManager(_point)\n    {\n      if (_discontinuous)\n      {\n        azimuth.incrementContinuityNumber(_point);\n      }\n      azimuth.setKeys(_point,\n                      _encryptionKey,\n                      _authenticationKey,\n                      _cryptoSuiteVersion);\n    }\n\n    //  spawn(): spawn _point, then either give, or allow _target to take,\n    //           ownership of _point\n    //\n    //    if _target is the :msg.sender, _targets owns the _point right away.\n    //    otherwise, _target becomes the transfer proxy of _point.\n    //\n    //    Requirements:\n    //    - _point must not be active\n    //    - _point must not be a planet with a galaxy prefix\n    //    - _point's prefix must be linked and under its spawn limit\n    //    - :msg.sender must be either the owner of _point's prefix,\n    //      or an authorized spawn proxy for it\n    //\n    function spawn(uint32 _point, address _target)\n      external\n    {\n      //  only currently unowned (and thus also inactive) points can be spawned\n      //\n      require(azimuth.isOwner(_point, 0x0));\n\n      //  prefix: half-width prefix of _point\n      //\n      uint16 prefix = azimuth.getPrefix(_point);\n\n      //  only allow spawning of points of the size directly below the prefix\n      //\n      //    this is possible because of how the address space works,\n      //    but supporting it introduces complexity through broken assumptions.\n      //\n      //    example:\n      //    0x0000.0000 - galaxy zero\n      //    0x0000.0100 - the first star of galaxy zero\n      //    0x0001.0100 - the first planet of the first star\n      //    0x0001.0000 - the first planet of galaxy zero\n      //\n      require( (uint8(azimuth.getPointSize(prefix)) + 1) ==\n               uint8(azimuth.getPointSize(_point)) );\n\n      //  prefix point must be linked and able to spawn\n      //\n      require( (azimuth.hasBeenLinked(prefix)) &&\n               ( azimuth.getSpawnCount(prefix) <\n                 getSpawnLimit(prefix, block.timestamp) ) );\n\n      //  the owner of a prefix can always spawn its children;\n      //  other addresses need explicit permission (the role\n      //  of \"spawnProxy\" in the Azimuth contract)\n      //\n      require( azimuth.canSpawnAs(prefix, msg.sender) );\n\n      //  if the caller is spawning the point to themselves,\n      //  assume it knows what it's doing and resolve right away\n      //\n      if (msg.sender == _target)\n      {\n        doSpawn(_point, _target, true, 0x0);\n      }\n      //\n      //  when sending to a \"foreign\" address, enforce a withdraw pattern\n      //  making the _point prefix's owner the _point owner in the mean time\n      //\n      else\n      {\n        doSpawn(_point, _target, false, azimuth.getOwner(prefix));\n      }\n    }\n\n    //  doSpawn(): actual spawning logic, used in spawn(). creates _point,\n    //             making the _target its owner if _direct, or making the\n    //             _holder the owner and the _target the transfer proxy\n    //             if not _direct.\n    //\n    function doSpawn( uint32 _point,\n                      address _target,\n                      bool _direct,\n                      address _holder )\n      internal\n    {\n      //  register the spawn for _point's prefix, incrementing spawn count\n      //\n      azimuth.registerSpawned(_point);\n\n      //  if the spawn is _direct, assume _target knows what they're doing\n      //  and resolve right away\n      //\n      if (_direct)\n      {\n        //  make the point active and set its new owner\n        //\n        azimuth.activatePoint(_point);\n        azimuth.setOwner(_point, _target);\n\n        emit Transfer(0x0, _target, uint256(_point));\n      }\n      //\n      //  when spawning indirectly, enforce a withdraw pattern by approving\n      //  the _target for transfer of the _point instead.\n      //  we make the _holder the owner of this _point in the mean time,\n      //  so that it may cancel the transfer (un-approve) if _target flakes.\n      //  we don't make _point active yet, because it still doesn't really\n      //  belong to anyone.\n      //\n      else\n      {\n        //  have _holder hold on to the _point while _target gets to transfer\n        //  ownership of it\n        //\n        azimuth.setOwner(_point, _holder);\n        azimuth.setTransferProxy(_point, _target);\n\n        emit Transfer(0x0, _holder, uint256(_point));\n        emit Approval(_holder, _target, uint256(_point));\n      }\n    }\n\n    //  transferPoint(): transfer _point to _target, clearing all permissions\n    //                   data and keys if _reset is true\n    //\n    //    Note: the _reset flag is useful when transferring the point to\n    //    a recipient who doesn't trust the previous owner.\n    //\n    //    Requirements:\n    //    - :msg.sender must be either _point's current owner, authorized\n    //      to transfer _point, or authorized to transfer the current\n    //      owner's points (as in ERC721's operator)\n    //    - _target must not be the zero address\n    //\n    function transferPoint(uint32 _point, address _target, bool _reset)\n      public\n    {\n      //  transfer is legitimate if the caller is the current owner, or\n      //  an operator for the current owner, or the _point's transfer proxy\n      //\n      require(azimuth.canTransfer(_point, msg.sender));\n\n      //  if the point wasn't active yet, that means transferring it\n      //  is part of the \"spawn\" flow, so we need to activate it\n      //\n      if ( !azimuth.isActive(_point) )\n      {\n        azimuth.activatePoint(_point);\n      }\n\n      //  if the owner would actually change, change it\n      //\n      //    the only time this deliberately wouldn't be the case is when a\n      //    prefix owner wants to activate a spawned but untransferred child.\n      //\n      if ( !azimuth.isOwner(_point, _target) )\n      {\n        //  remember the previous owner, to be included in the Transfer event\n        //\n        address old = azimuth.getOwner(_point);\n\n        azimuth.setOwner(_point, _target);\n\n        //  according to ERC721, the approved address (here, transfer proxy)\n        //  gets cleared during every Transfer event\n        //\n        azimuth.setTransferProxy(_point, 0);\n\n        emit Transfer(old, _target, uint256(_point));\n      }\n\n      //  reset sensitive data\n      //  used when transferring the point to a new owner\n      //\n      if ( _reset )\n      {\n        //  clear the network public keys and break continuity,\n        //  but only if the point has already been linked\n        //\n        if ( azimuth.hasBeenLinked(_point) )\n        {\n          azimuth.incrementContinuityNumber(_point);\n          azimuth.setKeys(_point, 0, 0, 0);\n        }\n\n        //  clear management proxy\n        //\n        azimuth.setManagementProxy(_point, 0);\n\n        //  clear voting proxy\n        //\n        azimuth.setVotingProxy(_point, 0);\n\n        //  clear transfer proxy\n        //\n        //    in most cases this is done above, during the ownership transfer,\n        //    but we might not hit that and still be expected to reset the\n        //    transfer proxy.\n        //    doing it a second time is a no-op in Azimuth.\n        //\n        azimuth.setTransferProxy(_point, 0);\n\n        //  clear spawning proxy\n        //\n        azimuth.setSpawnProxy(_point, 0);\n\n        //  clear claims\n        //\n        claims.clearClaims(_point);\n      }\n    }\n\n    //  escape(): request escape as _point to _sponsor\n    //\n    //    if an escape request is already active, this overwrites\n    //    the existing request\n    //\n    //    Requirements:\n    //    - :msg.sender must be the owner or manager of _point,\n    //    - _point must be able to escape to _sponsor as per to canEscapeTo()\n    //\n    function escape(uint32 _point, uint32 _sponsor)\n      external\n      activePointManager(_point)\n    {\n      require(canEscapeTo(_point, _sponsor));\n      azimuth.setEscapeRequest(_point, _sponsor);\n    }\n\n    //  cancelEscape(): cancel the currently set escape for _point\n    //\n    function cancelEscape(uint32 _point)\n      external\n      activePointManager(_point)\n    {\n      azimuth.cancelEscape(_point);\n    }\n\n    //  adopt(): as the relevant sponsor, accept the _point\n    //\n    //    Requirements:\n    //    - :msg.sender must be the owner or management proxy\n    //      of _point's requested sponsor\n    //\n    function adopt(uint32 _point)\n      external\n    {\n      require( azimuth.isEscaping(_point) &&\n               azimuth.canManage( azimuth.getEscapeRequest(_point),\n                                  msg.sender ) );\n\n      //  _sponsor becomes _point's sponsor\n      //  its escape request is reset to \"not escaping\"\n      //\n      azimuth.doEscape(_point);\n    }\n\n    //  reject(): as the relevant sponsor, deny the _point's request\n    //\n    //    Requirements:\n    //    - :msg.sender must be the owner or management proxy\n    //      of _point's requested sponsor\n    //\n    function reject(uint32 _point)\n      external\n    {\n      require( azimuth.isEscaping(_point) &&\n               azimuth.canManage( azimuth.getEscapeRequest(_point),\n                                  msg.sender ) );\n\n      //  reset the _point's escape request to \"not escaping\"\n      //\n      azimuth.cancelEscape(_point);\n    }\n\n    //  detach(): as the _sponsor, stop sponsoring the _point\n    //\n    //    Requirements:\n    //    - :msg.sender must be the owner or management proxy\n    //      of _point's current sponsor\n    //\n    function detach(uint32 _point)\n      external\n    {\n      require( azimuth.hasSponsor(_point) &&\n               azimuth.canManage(azimuth.getSponsor(_point), msg.sender) );\n\n      //  signal that its sponsor no longer supports _point\n      //\n      azimuth.loseSponsor(_point);\n    }\n\n  //\n  //  Point rules\n  //\n\n    //  getSpawnLimit(): returns the total number of children the _point\n    //                   is allowed to spawn at _time.\n    //\n    function getSpawnLimit(uint32 _point, uint256 _time)\n      public\n      view\n      returns (uint32 limit)\n    {\n      Azimuth.Size size = azimuth.getPointSize(_point);\n\n      if ( size == Azimuth.Size.Galaxy )\n      {\n        return 255;\n      }\n      else if ( size == Azimuth.Size.Star )\n      {\n        //  in 2019, stars may spawn at most 1024 planets. this limit doubles\n        //  for every subsequent year.\n        //\n        //    Note: 1546300800 corresponds to 2019-01-01\n        //\n        uint256 yearsSince2019 = (_time - 1546300800) / 365 days;\n        if (yearsSince2019 < 6)\n        {\n          limit = uint32( 1024 * (2 ** yearsSince2019) );\n        }\n        else\n        {\n          limit = 65535;\n        }\n        return limit;\n      }\n      else  //  size == Azimuth.Size.Planet\n      {\n        //  planets can create moons, but moons aren't on the chain\n        //\n        return 0;\n      }\n    }\n\n    //  canEscapeTo(): true if _point could try to escape to _sponsor\n    //\n    function canEscapeTo(uint32 _point, uint32 _sponsor)\n      public\n      view\n      returns (bool canEscape)\n    {\n      //  can't escape to a sponsor that hasn't been linked\n      //\n      if ( !azimuth.hasBeenLinked(_sponsor) ) return false;\n\n      //  Can only escape to a point one size higher than ourselves,\n      //  except in the special case where the escaping point hasn't\n      //  been linked yet -- in that case we may escape to points of\n      //  the same size, to support lightweight invitation chains.\n      //\n      //  The use case for lightweight invitations is that a planet\n      //  owner should be able to invite their friends onto an\n      //  Azimuth network in a two-party transaction, without a new\n      //  star relationship.\n      //  The lightweight invitation process works by escaping your\n      //  own active (but never linked) point to one of your own\n      //  points, then transferring the point to your friend.\n      //\n      //  These planets can, in turn, sponsor other unlinked planets,\n      //  so the \"planet sponsorship chain\" can grow to arbitrary\n      //  length. Most users, especially deep down the chain, will\n      //  want to improve their performance by switching to direct\n      //  star sponsors eventually.\n      //\n      Azimuth.Size pointSize = azimuth.getPointSize(_point);\n      Azimuth.Size sponsorSize = azimuth.getPointSize(_sponsor);\n      return ( //  normal hierarchical escape structure\n               //\n               ( (uint8(sponsorSize) + 1) == uint8(pointSize) ) ||\n               //\n               //  special peer escape\n               //\n               ( (sponsorSize == pointSize) &&\n                 //\n                 //  peer escape is only for points that haven't been linked\n                 //  yet, because it's only for lightweight invitation chains\n                 //\n                 !azimuth.hasBeenLinked(_point) ) );\n    }\n\n  //\n  //  Permission management\n  //\n\n    //  setManagementProxy(): configure the management proxy for _point\n    //\n    //    The management proxy may perform \"reversible\" operations on\n    //    behalf of the owner. This includes public key configuration and\n    //    operations relating to sponsorship.\n    //\n    function setManagementProxy(uint32 _point, address _manager)\n      external\n      activePointOwner(_point)\n    {\n      azimuth.setManagementProxy(_point, _manager);\n    }\n\n    //  setSpawnProxy(): give _spawnProxy the right to spawn points\n    //                   with the prefix _prefix\n    //\n    function setSpawnProxy(uint16 _prefix, address _spawnProxy)\n      external\n      activePointOwner(_prefix)\n    {\n      azimuth.setSpawnProxy(_prefix, _spawnProxy);\n    }\n\n    //  setVotingProxy(): configure the voting proxy for _galaxy\n    //\n    //    the voting proxy is allowed to start polls and cast votes\n    //    on the point's behalf.\n    //\n    function setVotingProxy(uint8 _galaxy, address _voter)\n      external\n      activePointOwner(_galaxy)\n    {\n      azimuth.setVotingProxy(_galaxy, _voter);\n    }\n\n    //  setTransferProxy(): give _transferProxy the right to transfer _point\n    //\n    //    Requirements:\n    //    - :msg.sender must be either _point's current owner,\n    //      or be an operator for the current owner\n    //\n    function setTransferProxy(uint32 _point, address _transferProxy)\n      public\n    {\n      //  owner: owner of _point\n      //\n      address owner = azimuth.getOwner(_point);\n\n      //  caller must be :owner, or an operator designated by the owner.\n      //\n      require((owner == msg.sender) || azimuth.isOperator(owner, msg.sender));\n\n      //  set transfer proxy field in Azimuth contract\n      //\n      azimuth.setTransferProxy(_point, _transferProxy);\n\n      //  emit Approval event\n      //\n      emit Approval(owner, _transferProxy, uint256(_point));\n    }\n\n  //\n  //  Poll actions\n  //\n\n    //  startUpgradePoll(): as _galaxy, start a poll for the ecliptic\n    //                      upgrade _proposal\n    //\n    //    Requirements:\n    //    - :msg.sender must be the owner or voting proxy of _galaxy,\n    //    - the _proposal must expect to be upgraded from this specific\n    //      contract, as indicated by its previousEcliptic attribute\n    //\n    function startUpgradePoll(uint8 _galaxy, EclipticBase _proposal)\n      external\n      activePointVoter(_galaxy)\n    {\n      //  ensure that the upgrade target expects this contract as the source\n      //\n      require(_proposal.previousEcliptic() == address(this));\n      polls.startUpgradePoll(_proposal);\n    }\n\n    //  startDocumentPoll(): as _galaxy, start a poll for the _proposal\n    //\n    //    the _proposal argument is the keccak-256 hash of any arbitrary\n    //    document or string of text\n    //\n    function startDocumentPoll(uint8 _galaxy, bytes32 _proposal)\n      external\n      activePointVoter(_galaxy)\n    {\n      polls.startDocumentPoll(_proposal);\n    }\n\n    //  castUpgradeVote(): as _galaxy, cast a _vote on the ecliptic\n    //                     upgrade _proposal\n    //\n    //    _vote is true when in favor of the proposal, false otherwise\n    //\n    //    If this vote results in a majority for the _proposal, it will\n    //    be upgraded to immediately.\n    //\n    function castUpgradeVote(uint8 _galaxy,\n                              EclipticBase _proposal,\n                              bool _vote)\n      external\n      activePointVoter(_galaxy)\n    {\n      //  majority: true if the vote resulted in a majority, false otherwise\n      //\n      bool majority = polls.castUpgradeVote(_galaxy, _proposal, _vote);\n\n      //  if a majority is in favor of the upgrade, it happens as defined\n      //  in the ecliptic base contract\n      //\n      if (majority)\n      {\n        upgrade(_proposal);\n      }\n    }\n\n    //  castDocumentVote(): as _galaxy, cast a _vote on the _proposal\n    //\n    //    _vote is true when in favor of the proposal, false otherwise\n    //\n    function castDocumentVote(uint8 _galaxy, bytes32 _proposal, bool _vote)\n      external\n      activePointVoter(_galaxy)\n    {\n      polls.castDocumentVote(_galaxy, _proposal, _vote);\n    }\n\n    //  updateUpgradePoll(): check whether the _proposal has achieved\n    //                      majority, upgrading to it if it has\n    //\n    function updateUpgradePoll(EclipticBase _proposal)\n      external\n    {\n      //  majority: true if the poll ended in a majority, false otherwise\n      //\n      bool majority = polls.updateUpgradePoll(_proposal);\n\n      //  if a majority is in favor of the upgrade, it happens as defined\n      //  in the ecliptic base contract\n      //\n      if (majority)\n      {\n        upgrade(_proposal);\n      }\n    }\n\n    //  updateDocumentPoll(): check whether the _proposal has achieved majority\n    //\n    //    Note: the polls contract publicly exposes the function this calls,\n    //    but we offer it in the ecliptic interface as a convenience\n    //\n    function updateDocumentPoll(bytes32 _proposal)\n      external\n    {\n      polls.updateDocumentPoll(_proposal);\n    }\n\n  //\n  //  Contract owner operations\n  //\n\n    //  createGalaxy(): grant _target ownership of the _galaxy and register\n    //                  it for voting\n    //\n    function createGalaxy(uint8 _galaxy, address _target)\n      external\n      onlyOwner\n    {\n      //  only currently unowned (and thus also inactive) galaxies can be\n      //  created, and only to non-zero addresses\n      //\n      require( azimuth.isOwner(_galaxy, 0x0) &&\n               0x0 != _target );\n\n      //  new galaxy means a new registered voter\n      //\n      polls.incrementTotalVoters();\n\n      //  if the caller is sending the galaxy to themselves,\n      //  assume it knows what it's doing and resolve right away\n      //\n      if (msg.sender == _target)\n      {\n        doSpawn(_galaxy, _target, true, 0x0);\n      }\n      //\n      //  when sending to a \"foreign\" address, enforce a withdraw pattern,\n      //  making the caller the owner in the mean time\n      //\n      else\n      {\n        doSpawn(_galaxy, _target, false, msg.sender);\n      }\n    }\n\n    function setDnsDomains(string _primary, string _secondary, string _tertiary)\n      external\n      onlyOwner\n    {\n      azimuth.setDnsDomains(_primary, _secondary, _tertiary);\n    }\n\n  //\n  //  Function modifiers for this contract\n  //\n\n    //  validPointId(): require that _id is a valid point\n    //\n    modifier validPointId(uint256 _id)\n    {\n      require(_id < 0x100000000);\n      _;\n    }\n\n    //  activePointVoter(): require that :msg.sender can vote as _point,\n    //                      and that _point is active\n    //\n    modifier activePointVoter(uint32 _point)\n    {\n      require( azimuth.canVoteAs(_point, msg.sender) &&\n               azimuth.isActive(_point) );\n      _;\n    }\n}\n",
  "sourcePath": "/Users/tlat/dev/thelifeandtimes/urbit-pay/node_modules/azimuth-solidity/contracts/Ecliptic.sol",
  "compiler": {
    "name": "solc",
    "version": "0.4.24+commit.e67f0147.Emscripten.clang"
  },
  "schemaVersion": "3.4.16",
  "updatedAt": "2024-09-21T14:25:40.256Z",
  "networkType": "ethereum",
  "devdoc": {
    "methods": {
      "renounceOwnership()": {
        "details": "Allows the current owner to relinquish control of the contract."
      },
      "supportsInterface(bytes4)": {
        "details": "implement supportsInterface(bytes4) using a lookup table"
      },
      "transferOwnership(address)": {
        "details": "Allows the current owner to transfer control of the contract to a newOwner.",
        "params": {
          "_newOwner": "The address to transfer ownership to."
        }
      }
    }
  },
  "userdoc": {
    "methods": {
      "renounceOwnership()": {
        "notice": "Renouncing to ownership will leave the contract without an owner. It will not be possible to call the functions with the `onlyOwner` modifier anymore."
      }
    }
  }
}